{
  "contractName": "Lottery",
  "abi": [
    {
      "constant": true,
      "inputs": [],
      "name": "total_bets",
      "outputs": [
        {
          "name": "",
          "type": "uint256"
        }
      ],
      "payable": false,
      "stateMutability": "view",
      "type": "function"
    },
    {
      "constant": true,
      "inputs": [],
      "name": "ticket_price",
      "outputs": [
        {
          "name": "",
          "type": "uint256"
        }
      ],
      "payable": false,
      "stateMutability": "view",
      "type": "function"
    },
    {
      "constant": true,
      "inputs": [],
      "name": "start_date",
      "outputs": [
        {
          "name": "",
          "type": "uint256"
        }
      ],
      "payable": false,
      "stateMutability": "view",
      "type": "function"
    },
    {
      "constant": true,
      "inputs": [],
      "name": "betting_period",
      "outputs": [
        {
          "name": "",
          "type": "uint256"
        }
      ],
      "payable": false,
      "stateMutability": "view",
      "type": "function"
    },
    {
      "constant": true,
      "inputs": [
        {
          "name": "",
          "type": "uint256"
        }
      ],
      "name": "bets_amount",
      "outputs": [
        {
          "name": "",
          "type": "uint256"
        }
      ],
      "payable": false,
      "stateMutability": "view",
      "type": "function"
    },
    {
      "constant": true,
      "inputs": [],
      "name": "waiting_period",
      "outputs": [
        {
          "name": "",
          "type": "uint256"
        }
      ],
      "payable": false,
      "stateMutability": "view",
      "type": "function"
    },
    {
      "constant": true,
      "inputs": [
        {
          "name": "",
          "type": "uint256"
        },
        {
          "name": "",
          "type": "uint256"
        }
      ],
      "name": "bets",
      "outputs": [
        {
          "name": "",
          "type": "address"
        }
      ],
      "payable": false,
      "stateMutability": "view",
      "type": "function"
    },
    {
      "constant": true,
      "inputs": [],
      "name": "organiser",
      "outputs": [
        {
          "name": "",
          "type": "address"
        }
      ],
      "payable": false,
      "stateMutability": "view",
      "type": "function"
    },
    {
      "constant": true,
      "inputs": [],
      "name": "upper_bound",
      "outputs": [
        {
          "name": "",
          "type": "uint256"
        }
      ],
      "payable": false,
      "stateMutability": "view",
      "type": "function"
    },
    {
      "constant": true,
      "inputs": [
        {
          "name": "",
          "type": "uint256"
        }
      ],
      "name": "bets_lengths",
      "outputs": [
        {
          "name": "",
          "type": "uint256"
        }
      ],
      "payable": false,
      "stateMutability": "view",
      "type": "function"
    },
    {
      "constant": true,
      "inputs": [],
      "name": "lower_bound",
      "outputs": [
        {
          "name": "",
          "type": "uint256"
        }
      ],
      "payable": false,
      "stateMutability": "view",
      "type": "function"
    },
    {
      "inputs": [
        {
          "name": "_betting_period",
          "type": "uint256"
        },
        {
          "name": "_waiting_period",
          "type": "uint256"
        }
      ],
      "payable": false,
      "stateMutability": "nonpayable",
      "type": "constructor"
    },
    {
      "anonymous": false,
      "inputs": [
        {
          "indexed": false,
          "name": "_drawer",
          "type": "address"
        },
        {
          "indexed": false,
          "name": "winning_number",
          "type": "uint256"
        },
        {
          "indexed": false,
          "name": "num_winners",
          "type": "uint256"
        }
      ],
      "name": "Drawn",
      "type": "event"
    },
    {
      "anonymous": false,
      "inputs": [
        {
          "indexed": false,
          "name": "_better",
          "type": "address"
        },
        {
          "indexed": false,
          "name": "bet",
          "type": "uint256"
        }
      ],
      "name": "Betted",
      "type": "event"
    },
    {
      "constant": false,
      "inputs": [
        {
          "name": "guess",
          "type": "uint256"
        }
      ],
      "name": "make_bet",
      "outputs": [],
      "payable": true,
      "stateMutability": "payable",
      "type": "function"
    },
    {
      "constant": false,
      "inputs": [
        {
          "name": "amount",
          "type": "uint256"
        }
      ],
      "name": "transfer_amount",
      "outputs": [],
      "payable": true,
      "stateMutability": "payable",
      "type": "function"
    },
    {
      "constant": false,
      "inputs": [],
      "name": "draw",
      "outputs": [],
      "payable": true,
      "stateMutability": "payable",
      "type": "function"
    },
    {
      "constant": false,
      "inputs": [],
      "name": "shutdown",
      "outputs": [],
      "payable": false,
      "stateMutability": "nonpayable",
      "type": "function"
    }
  ],
  "bytecode": "0x6060604052341561000f57600080fd5b604051604080610c808339810160405280805190602001909190805190602001909190505067016345785d8a000060008190555081600181905550806002819055506001600881905550600a600981905550600060048190555033600a60006101000a81548173ffffffffffffffffffffffffffffffffffffffff021916908373ffffffffffffffffffffffffffffffffffffffff1602179055506100c56100cc640100000000026108b9176401000000009004565b505061014d565b426003819055506100ee6100f064010000000002610a4a176401000000009004565b565b600060085490505b6009548111151561014257600060066000838152602001908152602001600020819055506000600760008381526020019081526020016000208190555080806001019150506100f8565b600060048190555050565b610b248061015c6000396000f3006060604052600436106100db576000357c0100000000000000000000000000000000000000000000000000000000900463ffffffff1680630eecae21146100e0578063125b8454146100ea57806319d41c691461011357806327d795d71461013c5780632f9ff4511461016557806353adebc81461018e57806356585b24146101a65780635a6afe2f146101dd57806362ab5f80146101f55780636a09f6be1461021e5780637e5374861461028a57806385eb4dab146102df578063bd36e03814610308578063f5a999791461033f578063fc0e74d114610368575b600080fd5b6100e861037d565b005b34156100f557600080fd5b6100fd61058f565b6040518082815260200191505060405180910390f35b341561011e57600080fd5b610126610595565b6040518082815260200191505060405180910390f35b341561014757600080fd5b61014f61059b565b6040518082815260200191505060405180910390f35b341561017057600080fd5b6101786105a1565b6040518082815260200191505060405180910390f35b6101a460048080359060200190919050506105a7565b005b34156101b157600080fd5b6101c7600480803590602001909190505061065e565b6040518082815260200191505060405180910390f35b6101f36004808035906020019091905050610676565b005b341561020057600080fd5b610208610744565b6040518082815260200191505060405180910390f35b341561022957600080fd5b610248600480803590602001909190803590602001909190505061074a565b604051808273ffffffffffffffffffffffffffffffffffffffff1673ffffffffffffffffffffffffffffffffffffffff16815260200191505060405180910390f35b341561029557600080fd5b61029d610798565b604051808273ffffffffffffffffffffffffffffffffffffffff1673ffffffffffffffffffffffffffffffffffffffff16815260200191505060405180910390f35b34156102ea57600080fd5b6102f26107be565b6040518082815260200191505060405180910390f35b341561031357600080fd5b61032960048080359060200190919050506107c4565b6040518082815260200191505060405180910390f35b341561034a57600080fd5b6103526107dc565b6040518082815260200191505060405180910390f35b341561037357600080fd5b61037b6107e2565b005b600080600080600080600254600154016003544203101561039d57600080fd5b6103a5610886565b9550600560043073ffffffffffffffffffffffffffffffffffffffff1631028115156103cd57fe5b049450601460013073ffffffffffffffffffffffffffffffffffffffff1631028115156103f657fe5b0493506006600087815260200190815260200160002054925060008311156104cc57828581151561042357fe5b049150600090505b828110156104cb57600560008781526020019081526020016000208181548110151561045357fe5b906000526020600020900160009054906101000a900473ffffffffffffffffffffffffffffffffffffffff1673ffffffffffffffffffffffffffffffffffffffff166108fc839081150290604051600060405180830381858888f1935050505015156104be57600080fd5b808060010191505061042b565b5b3373ffffffffffffffffffffffffffffffffffffffff166108fc859081150290604051600060405180830381858888f19350505050151561050c57600080fd5b6105146108b9565b7f11c8b4019de91c411a4563c3f1a6debb06e417f30b786f18dfe77db88d406577338785604051808473ffffffffffffffffffffffffffffffffffffffff1673ffffffffffffffffffffffffffffffffffffffff168152602001838152602001828152602001935050505060405180910390a1505050505050565b60045481565b60005481565b60035481565b60015481565b600a60009054906101000a900473ffffffffffffffffffffffffffffffffffffffff1673ffffffffffffffffffffffffffffffffffffffff163373ffffffffffffffffffffffffffffffffffffffff1614151561060357600080fd5b600a60009054906101000a900473ffffffffffffffffffffffffffffffffffffffff1673ffffffffffffffffffffffffffffffffffffffff166108fc829081150290604051600060405180830381858888f193505050505050565b60076020528060005260406000206000915090505481565b60005434101561068557600080fd5b806008541180610696575060095481115b156106a057600080fd5b600060045414156106b757426003819055506106cb565b600154600354420311156106ca57600080fd5b5b6106d68133346108ca565b7f4d1c345809c3d0af843c6212461e70df0a3e35fc06fa55baf9888341cfc96f9b3382604051808373ffffffffffffffffffffffffffffffffffffffff1673ffffffffffffffffffffffffffffffffffffffff1681526020018281526020019250505060405180910390a150565b60025481565b60056020528160005260406000208181548110151561076557fe5b90600052602060002090016000915091509054906101000a900473ffffffffffffffffffffffffffffffffffffffff1681565b600a60009054906101000a900473ffffffffffffffffffffffffffffffffffffffff1681565b60095481565b60066020528060005260406000206000915090505481565b60085481565b60006004541480156108415750600a60009054906101000a900473ffffffffffffffffffffffffffffffffffffffff1673ffffffffffffffffffffffffffffffffffffffff163373ffffffffffffffffffffffffffffffffffffffff16145b1561088157600a60009054906101000a900473ffffffffffffffffffffffffffffffffffffffff1673ffffffffffffffffffffffffffffffffffffffff16ff5b600080fd5b6000806000600160085460095403019150816001430340600190048115156108aa57fe5b06905080600854019250505090565b426003819055506108c8610a4a565b565b6000600660008581526020019081526020016000205490506005600085815260200190815260200160002080549050811415610979576005600085815260200190815260200160002080548060010182816109259190610aa7565b9160005260206000209001600085909190916101000a81548173ffffffffffffffffffffffffffffffffffffffff021916908373ffffffffffffffffffffffffffffffffffffffff160217905550506109e4565b82600560008681526020019081526020016000208281548110151561099a57fe5b906000526020600020900160006101000a81548173ffffffffffffffffffffffffffffffffffffffff021916908373ffffffffffffffffffffffffffffffffffffffff1602179055505b60016006600086815260200190815260200160002060008282540192505081905550816007600086815260200190815260200160002054016007600086815260200190815260200160002081905550600160046000828254019250508190555050505050565b600060085490505b60095481111515610a9c5760006006600083815260200190815260200160002081905550600060076000838152602001908152602001600020819055508080600101915050610a52565b600060048190555050565b815481835581811511610ace57818360005260206000209182019101610acd9190610ad3565b5b505050565b610af591905b80821115610af1576000816000905550600101610ad9565b5090565b905600a165627a7a723058201101847bf86bec2d9419ea106e71b3240bed6b7222541aaeb9a90cfd2f2cdb280029",
  "source": "pragma solidity ^0.4.2;\n\ncontract Lottery {\n\n    // price of a ticket\n    uint public ticket_price;\n\n    uint public betting_period;\n    // waiting period before a draw can be made (after the betting period)\n    uint public waiting_period;\n\n    // date when lottery is opened\n    uint public start_date;\n\n    // total bets\n    uint public total_bets;\n\n    // { guess => [address] }\n    mapping(uint => address[]) public bets;\n    // { guess => [address].length }\n    mapping(uint => uint) public bets_lengths;\n    // { guess => [address].length }\n    mapping(uint => uint) public bets_amount;\n\n\n    // bounds of guess\n    uint public lower_bound;\n    uint public upper_bound;\n\n    // organiser of the lottery\n    address public organiser;\n\n    // Events\n    event Drawn(address _drawer, uint winning_number, uint num_winners);\n    event Betted(address _better, uint bet);\n\n    function Lottery(uint _betting_period, uint _waiting_period) {\n        ticket_price = 0.1 ether;\n        betting_period = _betting_period;\n        waiting_period = _waiting_period;\n        lower_bound = 1;\n        upper_bound = 10;\n        total_bets = 0;\n        organiser = msg.sender;\n        reset_state();\n    }\n\n    function reset_state() private {\n        start_date = now;\n        clear_all_bets();\n    }\n\n    function insert_bet(uint guess, address better, uint bet_amount) private {\n        var index = bets_lengths[guess];\n\n        if (index == bets[guess].length) {\n            bets[guess].push(better);\n        } else {\n            bets[guess][index] = better;\n        }\n\n        bets_lengths[guess] += 1;\n        bets_amount[guess] = bets_amount[guess] + bet_amount;\n        total_bets += 1;\n    }\n\n    function clear_all_bets() private {\n        for (uint i = lower_bound; i <= upper_bound; i++) {\n            bets_lengths[i] = 0;\n            bets_amount[i] = 0;\n        }\n        total_bets = 0;\n    }\n\n    /**\n    * Takes a guess from the player and adds it to the existing round\n    */\n    function make_bet(uint guess) payable public {\n        // Check if the sender sent the correct amount\n        if (msg.value < ticket_price) throw;\n\n        // Check if the guess is valid\n        if (lower_bound > guess || guess > upper_bound) throw;\n\n        // Check if the ticket is the first one in the pool\n        if (total_bets == 0) {\n            start_date = now; // Start the countdown.\n        }\n        else {\n            // Check if the bet is made within the betting period\n            if ((now - start_date) > betting_period ) throw;\n        }\n\n        // { guess => address } is recorded for prize distribution later\n        insert_bet(guess, msg.sender, msg.value);\n        Betted(msg.sender, guess);\n    }\n\n    function transfer_amount(uint amount) payable public  {\n\t\tif(msg.sender!=organiser)\n\t\t\trevert();\n\t\telse\n\t\t\torganiser.send(amount);\n    }\n\n\n    /**\n    * Starts the draw for the existing round (if conditions are met)\n    */\n    function draw() payable public {\n        // Check guard conditions\n        if ((now - start_date) < (betting_period + waiting_period)) throw;\n\n        // Pick winning number\n        var winning_number = get_winning_number();\n\n        // Calculate prizes\n        var total_prize = this.balance * 4 / 5;\n        var call_incentive = this.balance * 1 / 20;\n\n        // Distribute prize amongst winners\n        var num_of_winners = bets_lengths[winning_number];\n\n        if (num_of_winners > 0) {\n            var split_prize = total_prize / num_of_winners;\n            for (uint i = 0; i < num_of_winners; i++) {\n                if (!bets[winning_number][i].send(split_prize)) throw;\n            }\n        }\n\n        // Reward caller of draw function\n        if (!msg.sender.send(call_incentive)) throw;\n\n        // Reset state to allow new bets\n        reset_state();\n        Drawn(msg.sender, winning_number, num_of_winners);\n    }\n\n    function get_winning_number() private returns (uint) {\n        var range = (upper_bound - lower_bound) + 1;\n        var offset = uint256(block.blockhash(block.number-1)) % range;\n        return lower_bound + offset;\n    }\n\n    function shutdown() {\n        if (total_bets == 0 && msg.sender == organiser) {\n            suicide(organiser);\n        }\n        else {\n            throw;\n        }\n    }\n}\n",
  "sourcePath": "/Users/febinjohnjames/Dapps/eth-lottery/contracts/Lottery.sol",
  "compiler": {
    "name": "solc",
    "version": "0.4.19+commit.c4cbbb05.Emscripten.clang"
  },
  "schemaVersion": "2.0.0",
  "updatedAt": "2018-07-12T10:06:31.166Z"
}