{
  "contractName": "Lottery",
  "abi": [
    {
      "constant": true,
      "inputs": [],
      "name": "total_bets",
      "outputs": [
        {
          "name": "",
          "type": "uint256"
        }
      ],
      "payable": false,
      "stateMutability": "view",
      "type": "function"
    },
    {
      "constant": true,
      "inputs": [],
      "name": "ticket_price",
      "outputs": [
        {
          "name": "",
          "type": "uint256"
        }
      ],
      "payable": false,
      "stateMutability": "view",
      "type": "function"
    },
    {
      "constant": true,
      "inputs": [],
      "name": "start_date",
      "outputs": [
        {
          "name": "",
          "type": "uint256"
        }
      ],
      "payable": false,
      "stateMutability": "view",
      "type": "function"
    },
    {
      "constant": true,
      "inputs": [],
      "name": "betting_period",
      "outputs": [
        {
          "name": "",
          "type": "uint256"
        }
      ],
      "payable": false,
      "stateMutability": "view",
      "type": "function"
    },
    {
      "constant": true,
      "inputs": [],
      "name": "waiting_period",
      "outputs": [
        {
          "name": "",
          "type": "uint256"
        }
      ],
      "payable": false,
      "stateMutability": "view",
      "type": "function"
    },
    {
      "constant": true,
      "inputs": [
        {
          "name": "",
          "type": "uint256"
        },
        {
          "name": "",
          "type": "uint256"
        }
      ],
      "name": "bets",
      "outputs": [
        {
          "name": "",
          "type": "address"
        }
      ],
      "payable": false,
      "stateMutability": "view",
      "type": "function"
    },
    {
      "constant": true,
      "inputs": [],
      "name": "organiser",
      "outputs": [
        {
          "name": "",
          "type": "address"
        }
      ],
      "payable": false,
      "stateMutability": "view",
      "type": "function"
    },
    {
      "constant": true,
      "inputs": [],
      "name": "upper_bound",
      "outputs": [
        {
          "name": "",
          "type": "uint256"
        }
      ],
      "payable": false,
      "stateMutability": "view",
      "type": "function"
    },
    {
      "constant": true,
      "inputs": [
        {
          "name": "",
          "type": "uint256"
        }
      ],
      "name": "bets_lengths",
      "outputs": [
        {
          "name": "",
          "type": "uint256"
        }
      ],
      "payable": false,
      "stateMutability": "view",
      "type": "function"
    },
    {
      "constant": true,
      "inputs": [],
      "name": "lower_bound",
      "outputs": [
        {
          "name": "",
          "type": "uint256"
        }
      ],
      "payable": false,
      "stateMutability": "view",
      "type": "function"
    },
    {
      "inputs": [
        {
          "name": "_betting_period",
          "type": "uint256"
        },
        {
          "name": "_waiting_period",
          "type": "uint256"
        }
      ],
      "payable": false,
      "stateMutability": "nonpayable",
      "type": "constructor"
    },
    {
      "anonymous": false,
      "inputs": [
        {
          "indexed": false,
          "name": "_drawer",
          "type": "address"
        },
        {
          "indexed": false,
          "name": "winning_number",
          "type": "uint256"
        },
        {
          "indexed": false,
          "name": "num_winners",
          "type": "uint256"
        }
      ],
      "name": "Drawn",
      "type": "event"
    },
    {
      "anonymous": false,
      "inputs": [
        {
          "indexed": false,
          "name": "_better",
          "type": "address"
        },
        {
          "indexed": false,
          "name": "bet",
          "type": "uint256"
        }
      ],
      "name": "Betted",
      "type": "event"
    },
    {
      "constant": false,
      "inputs": [
        {
          "name": "guess",
          "type": "uint256"
        }
      ],
      "name": "make_bet",
      "outputs": [],
      "payable": true,
      "stateMutability": "payable",
      "type": "function"
    },
    {
      "constant": false,
      "inputs": [
        {
          "name": "amount",
          "type": "uint256"
        }
      ],
      "name": "transfer_amount",
      "outputs": [],
      "payable": true,
      "stateMutability": "payable",
      "type": "function"
    },
    {
      "constant": false,
      "inputs": [],
      "name": "draw",
      "outputs": [],
      "payable": true,
      "stateMutability": "payable",
      "type": "function"
    },
    {
      "constant": false,
      "inputs": [],
      "name": "shutdown",
      "outputs": [],
      "payable": false,
      "stateMutability": "nonpayable",
      "type": "function"
    }
  ],
  "bytecode": "0x6060604052341561000f57600080fd5b604051604080610bc58339810160405280805190602001909190805190602001909190505067016345785d8a000060008190555081600181905550806002819055506001600781905550600a600881905550600060048190555033600960006101000a81548173ffffffffffffffffffffffffffffffffffffffff021916908373ffffffffffffffffffffffffffffffffffffffff1602179055506100c56100cc6401000000000261085e176401000000009004565b5050610134565b426003819055506100ee6100f0640100000000026109c1176401000000009004565b565b600060075490505b60085481111515610129576000600660008381526020019081526020016000208190555080806001019150506100f8565b600060048190555050565b610a82806101436000396000f3006060604052600436106100d0576000357c0100000000000000000000000000000000000000000000000000000000900463ffffffff1680630eecae21146100d5578063125b8454146100df57806319d41c691461010857806327d795d7146101315780632f9ff4511461015a57806353adebc8146101835780635a6afe2f1461019b57806362ab5f80146101b35780636a09f6be146101dc5780637e5374861461024857806385eb4dab1461029d578063bd36e038146102c6578063f5a99979146102fd578063fc0e74d114610326575b600080fd5b6100dd61033b565b005b34156100ea57600080fd5b6100f261054d565b6040518082815260200191505060405180910390f35b341561011357600080fd5b61011b610553565b6040518082815260200191505060405180910390f35b341561013c57600080fd5b610144610559565b6040518082815260200191505060405180910390f35b341561016557600080fd5b61016d61055f565b6040518082815260200191505060405180910390f35b6101996004808035906020019091905050610565565b005b6101b1600480803590602001909190505061061c565b005b34156101be57600080fd5b6101c66106e9565b6040518082815260200191505060405180910390f35b34156101e757600080fd5b61020660048080359060200190919080359060200190919050506106ef565b604051808273ffffffffffffffffffffffffffffffffffffffff1673ffffffffffffffffffffffffffffffffffffffff16815260200191505060405180910390f35b341561025357600080fd5b61025b61073d565b604051808273ffffffffffffffffffffffffffffffffffffffff1673ffffffffffffffffffffffffffffffffffffffff16815260200191505060405180910390f35b34156102a857600080fd5b6102b0610763565b6040518082815260200191505060405180910390f35b34156102d157600080fd5b6102e76004808035906020019091905050610769565b6040518082815260200191505060405180910390f35b341561030857600080fd5b610310610781565b6040518082815260200191505060405180910390f35b341561033157600080fd5b610339610787565b005b600080600080600080600254600154016003544203101561035b57600080fd5b61036361082b565b9550600560043073ffffffffffffffffffffffffffffffffffffffff16310281151561038b57fe5b049450601460013073ffffffffffffffffffffffffffffffffffffffff1631028115156103b457fe5b04935060066000878152602001908152602001600020549250600083111561048a5782858115156103e157fe5b049150600090505b8281101561048957600560008781526020019081526020016000208181548110151561041157fe5b906000526020600020900160009054906101000a900473ffffffffffffffffffffffffffffffffffffffff1673ffffffffffffffffffffffffffffffffffffffff166108fc839081150290604051600060405180830381858888f19350505050151561047c57600080fd5b80806001019150506103e9565b5b3373ffffffffffffffffffffffffffffffffffffffff166108fc859081150290604051600060405180830381858888f1935050505015156104ca57600080fd5b6104d261085e565b7f11c8b4019de91c411a4563c3f1a6debb06e417f30b786f18dfe77db88d406577338785604051808473ffffffffffffffffffffffffffffffffffffffff1673ffffffffffffffffffffffffffffffffffffffff168152602001838152602001828152602001935050505060405180910390a1505050505050565b60045481565b60005481565b60035481565b60015481565b600960009054906101000a900473ffffffffffffffffffffffffffffffffffffffff1673ffffffffffffffffffffffffffffffffffffffff163373ffffffffffffffffffffffffffffffffffffffff161415156105c157600080fd5b600960009054906101000a900473ffffffffffffffffffffffffffffffffffffffff1673ffffffffffffffffffffffffffffffffffffffff166108fc829081150290604051600060405180830381858888f193505050505050565b60005434101561062b57600080fd5b80600754118061063c575060085481115b1561064657600080fd5b6000600454141561065d5742600381905550610671565b6001546003544203111561067057600080fd5b5b61067b813361086f565b7f4d1c345809c3d0af843c6212461e70df0a3e35fc06fa55baf9888341cfc96f9b3382604051808373ffffffffffffffffffffffffffffffffffffffff1673ffffffffffffffffffffffffffffffffffffffff1681526020018281526020019250505060405180910390a150565b60025481565b60056020528160005260406000208181548110151561070a57fe5b90600052602060002090016000915091509054906101000a900473ffffffffffffffffffffffffffffffffffffffff1681565b600960009054906101000a900473ffffffffffffffffffffffffffffffffffffffff1681565b60085481565b60066020528060005260406000206000915090505481565b60075481565b60006004541480156107e65750600960009054906101000a900473ffffffffffffffffffffffffffffffffffffffff1673ffffffffffffffffffffffffffffffffffffffff163373ffffffffffffffffffffffffffffffffffffffff16145b1561082657600960009054906101000a900473ffffffffffffffffffffffffffffffffffffffff1673ffffffffffffffffffffffffffffffffffffffff16ff5b600080fd5b60008060006001600754600854030191508160014303406001900481151561084f57fe5b06905080600754019250505090565b4260038190555061086d6109c1565b565b600060066000848152602001908152602001600020549050600560008481526020019081526020016000208054905081141561091e576005600084815260200190815260200160002080548060010182816108ca9190610a05565b9160005260206000209001600084909190916101000a81548173ffffffffffffffffffffffffffffffffffffffff021916908373ffffffffffffffffffffffffffffffffffffffff16021790555050610989565b81600560008581526020019081526020016000208281548110151561093f57fe5b906000526020600020900160006101000a81548173ffffffffffffffffffffffffffffffffffffffff021916908373ffffffffffffffffffffffffffffffffffffffff1602179055505b600160066000858152602001908152602001600020600082825401925050819055506001600460008282540192505081905550505050565b600060075490505b600854811115156109fa576000600660008381526020019081526020016000208190555080806001019150506109c9565b600060048190555050565b815481835581811511610a2c57818360005260206000209182019101610a2b9190610a31565b5b505050565b610a5391905b80821115610a4f576000816000905550600101610a37565b5090565b905600a165627a7a72305820a9c797dc05abc4a83631002414e5f0aee511f6c8df899cd9b65ec4d1e8331c220029",
  "source": "pragma solidity ^0.4.2;\n\ncontract Lottery {\n\n    // price of a ticket\n    uint public ticket_price;\n\n    uint public betting_period;\n    // waiting period before a draw can be made (after the betting period)\n    uint public waiting_period;\n\n    // date when lottery is opened\n    uint public start_date;\n\n    // total bets\n    uint public total_bets;\n\n    // { guess => [address] }\n    mapping(uint => address[]) public bets;\n    // { guess => [address].length }\n    mapping(uint => uint) public bets_lengths;\n\n    // bounds of guess\n    uint public lower_bound;\n    uint public upper_bound;\n\n    // organiser of the lottery\n    address public organiser;\n\n    // Events\n    event Drawn(address _drawer, uint winning_number, uint num_winners);\n    event Betted(address _better, uint bet);\n\n    function Lottery(uint _betting_period, uint _waiting_period) {\n        ticket_price = 0.1 ether;\n        betting_period = _betting_period;\n        waiting_period = _waiting_period;\n        lower_bound = 1;\n        upper_bound = 10;\n        total_bets = 0;\n        organiser = msg.sender;\n        reset_state();\n    }\n\n    function reset_state() private {\n        start_date = now;\n        clear_all_bets();\n    }\n\n    function insert_bet(uint guess, address better) private {\n        var index = bets_lengths[guess];\n\n        if (index == bets[guess].length) {\n            bets[guess].push(better);\n        } else {\n            bets[guess][index] = better;\n        }\n\n        bets_lengths[guess] += 1;\n        total_bets += 1;\n    }\n\n    function clear_all_bets() private {\n        for (uint i = lower_bound; i <= upper_bound; i++) {\n            bets_lengths[i] = 0;\n        }\n        total_bets = 0;\n    }\n\n    /**\n    * Takes a guess from the player and adds it to the existing round\n    */\n    function make_bet(uint guess) payable public {\n        // Check if the sender sent the correct amount\n        if (msg.value < ticket_price) throw;\n\n        // Check if the guess is valid\n        if (lower_bound > guess || guess > upper_bound) throw;\n\n        // Check if the ticket is the first one in the pool\n        if (total_bets == 0) {\n            start_date = now; // Start the countdown.\n        }\n        else {\n            // Check if the bet is made within the betting period\n            if ((now - start_date) > betting_period ) throw;\n        }\n\n        // { guess => address } is recorded for prize distribution later\n        insert_bet(guess, msg.sender);\n        Betted(msg.sender, guess);\n    }\n\n    function transfer_amount(uint amount) payable public  {\n\t\tif(msg.sender!=organiser)\n\t\t\trevert();\n\t\telse\n\t\t\torganiser.send(amount);\n    }\n\n\n    /**\n    * Starts the draw for the existing round (if conditions are met)\n    */\n    function draw() payable public {\n        // Check guard conditions\n        if ((now - start_date) < (betting_period + waiting_period)) throw;\n\n        // Pick winning number\n        var winning_number = get_winning_number();\n\n        // Calculate prizes\n        var total_prize = this.balance * 4 / 5;\n        var call_incentive = this.balance * 1 / 20;\n\n        // Distribute prize amongst winners\n        var num_of_winners = bets_lengths[winning_number];\n\n        if (num_of_winners > 0) {\n            var split_prize = total_prize / num_of_winners;\n            for (uint i = 0; i < num_of_winners; i++) {\n                if (!bets[winning_number][i].send(split_prize)) throw;\n            }\n        }\n\n        // Reward caller of draw function\n        if (!msg.sender.send(call_incentive)) throw;\n\n        // Reset state to allow new bets\n        reset_state();\n        Drawn(msg.sender, winning_number, num_of_winners);\n    }\n\n    function get_winning_number() private returns (uint) {\n        var range = (upper_bound - lower_bound) + 1;\n        var offset = uint256(block.blockhash(block.number-1)) % range;\n        return lower_bound + offset;\n    }\n\n    function shutdown() {\n        if (total_bets == 0 && msg.sender == organiser) {\n            suicide(organiser);\n        }\n        else {\n            throw;\n        }\n    }\n}\n",
  "sourcePath": "/Users/febinjohnjames/Dapps/eth-lottery/contracts/Lottery.sol",
  "compiler": {
    "name": "solc",
    "version": "0.4.19+commit.c4cbbb05.Emscripten.clang"
  },
  "schemaVersion": "2.0.0",
  "updatedAt": "2018-07-10T07:15:41.611Z"
}